{
	"contracts/DummyChainlinkCompatibleOracle.sol": {
		"DummyChainlinkCompatibleOracle": {
			"abi": [
				{
					"anonymous": false,
					"inputs": [
						{
							"indexed": true,
							"internalType": "int256",
							"name": "current",
							"type": "int256"
						},
						{
							"indexed": true,
							"internalType": "uint256",
							"name": "roundId",
							"type": "uint256"
						},
						{
							"indexed": false,
							"internalType": "uint256",
							"name": "updatedAt",
							"type": "uint256"
						}
					],
					"name": "AnswerUpdated",
					"type": "event"
				},
				{
					"anonymous": false,
					"inputs": [
						{
							"indexed": true,
							"internalType": "uint256",
							"name": "roundId",
							"type": "uint256"
						},
						{
							"indexed": true,
							"internalType": "address",
							"name": "startedBy",
							"type": "address"
						},
						{
							"indexed": false,
							"internalType": "uint256",
							"name": "startedAt",
							"type": "uint256"
						}
					],
					"name": "NewRound",
					"type": "event"
				},
				{
					"inputs": [],
					"name": "decimals",
					"outputs": [
						{
							"internalType": "uint8",
							"name": "",
							"type": "uint8"
						}
					],
					"stateMutability": "pure",
					"type": "function"
				},
				{
					"inputs": [],
					"name": "description",
					"outputs": [
						{
							"internalType": "string",
							"name": "",
							"type": "string"
						}
					],
					"stateMutability": "pure",
					"type": "function"
				},
				{
					"inputs": [
						{
							"internalType": "uint256",
							"name": "_roundId",
							"type": "uint256"
						}
					],
					"name": "getAnswer",
					"outputs": [
						{
							"internalType": "int256",
							"name": "",
							"type": "int256"
						}
					],
					"stateMutability": "view",
					"type": "function"
				},
				{
					"inputs": [
						{
							"internalType": "uint80",
							"name": "_roundId",
							"type": "uint80"
						}
					],
					"name": "getRoundData",
					"outputs": [
						{
							"internalType": "uint80",
							"name": "roundId",
							"type": "uint80"
						},
						{
							"internalType": "int256",
							"name": "answer",
							"type": "int256"
						},
						{
							"internalType": "uint256",
							"name": "startedAt",
							"type": "uint256"
						},
						{
							"internalType": "uint256",
							"name": "updatedAt",
							"type": "uint256"
						},
						{
							"internalType": "uint80",
							"name": "answeredInRound",
							"type": "uint80"
						}
					],
					"stateMutability": "view",
					"type": "function"
				},
				{
					"inputs": [
						{
							"internalType": "uint256",
							"name": "_roundId",
							"type": "uint256"
						}
					],
					"name": "getTimestamp",
					"outputs": [
						{
							"internalType": "uint256",
							"name": "",
							"type": "uint256"
						}
					],
					"stateMutability": "view",
					"type": "function"
				},
				{
					"inputs": [],
					"name": "latestAnswer",
					"outputs": [
						{
							"internalType": "int256",
							"name": "",
							"type": "int256"
						}
					],
					"stateMutability": "view",
					"type": "function"
				},
				{
					"inputs": [],
					"name": "latestRound",
					"outputs": [
						{
							"internalType": "uint256",
							"name": "",
							"type": "uint256"
						}
					],
					"stateMutability": "view",
					"type": "function"
				},
				{
					"inputs": [],
					"name": "latestRoundData",
					"outputs": [
						{
							"internalType": "uint80",
							"name": "roundId",
							"type": "uint80"
						},
						{
							"internalType": "int256",
							"name": "answer",
							"type": "int256"
						},
						{
							"internalType": "uint256",
							"name": "startedAt",
							"type": "uint256"
						},
						{
							"internalType": "uint256",
							"name": "updatedAt",
							"type": "uint256"
						},
						{
							"internalType": "uint80",
							"name": "answeredInRound",
							"type": "uint80"
						}
					],
					"stateMutability": "view",
					"type": "function"
				},
				{
					"inputs": [],
					"name": "latestTimestamp",
					"outputs": [
						{
							"internalType": "uint256",
							"name": "",
							"type": "uint256"
						}
					],
					"stateMutability": "view",
					"type": "function"
				},
				{
					"inputs": [
						{
							"internalType": "int256",
							"name": "_price",
							"type": "int256"
						}
					],
					"name": "setPrice",
					"outputs": [],
					"stateMutability": "nonpayable",
					"type": "function"
				},
				{
					"inputs": [],
					"name": "version",
					"outputs": [
						{
							"internalType": "uint256",
							"name": "",
							"type": "uint256"
						}
					],
					"stateMutability": "pure",
					"type": "function"
				}
			],
			"devdoc": {
				"kind": "dev",
				"methods": {},
				"version": 1
			},
			"evm": {
				"assembly": "    /* \"contracts/DummyChainlinkCompatibleOracle.sol\":119:2869  contract DummyChainlinkCompatibleOracle is AggregatorV2V3Interface {... */\n  mstore(0x40, 0x80)\n  callvalue\n  dup1\n  iszero\n  tag_1\n  jumpi\n  0x00\n  dup1\n  revert\ntag_1:\n  pop\n  dataSize(sub_0)\n  dup1\n  dataOffset(sub_0)\n  0x00\n  codecopy\n  0x00\n  return\nstop\n\nsub_0: assembly {\n        /* \"contracts/DummyChainlinkCompatibleOracle.sol\":119:2869  contract DummyChainlinkCompatibleOracle is AggregatorV2V3Interface {... */\n      mstore(0x40, 0x80)\n      callvalue\n      dup1\n      iszero\n      tag_1\n      jumpi\n      0x00\n      dup1\n      revert\n    tag_1:\n      pop\n      jumpi(tag_2, lt(calldatasize, 0x04))\n      shr(0xe0, calldataload(0x00))\n      dup1\n      0x8205bf6a\n      gt\n      tag_14\n      jumpi\n      dup1\n      0x8205bf6a\n      eq\n      tag_8\n      jumpi\n      dup1\n      0x9a6fc8f5\n      eq\n      tag_9\n      jumpi\n      dup1\n      0xb5ab58dc\n      eq\n      tag_10\n      jumpi\n      dup1\n      0xb633620c\n      eq\n      tag_11\n      jumpi\n      dup1\n      0xf7a30806\n      eq\n      tag_12\n      jumpi\n      dup1\n      0xfeaf968c\n      eq\n      tag_13\n      jumpi\n      jump(tag_2)\n    tag_14:\n      dup1\n      0x313ce567\n      eq\n      tag_3\n      jumpi\n      dup1\n      0x50d25bcd\n      eq\n      tag_4\n      jumpi\n      dup1\n      0x54fd4d50\n      eq\n      tag_5\n      jumpi\n      dup1\n      0x668a0f02\n      eq\n      tag_6\n      jumpi\n      dup1\n      0x7284e416\n      eq\n      tag_7\n      jumpi\n    tag_2:\n      0x00\n      dup1\n      revert\n        /* \"contracts/DummyChainlinkCompatibleOracle.sol\":1651:1783  function decimals() external pure override returns (uint8) {... */\n    tag_3:\n      tag_15\n      tag_16\n      jump\t// in\n    tag_15:\n      mload(0x40)\n      tag_17\n      swap2\n      swap1\n      tag_18\n      jump\t// in\n    tag_17:\n      mload(0x40)\n      dup1\n      swap2\n      sub\n      swap1\n      return\n        /* \"contracts/DummyChainlinkCompatibleOracle.sol\":791:890  function latestAnswer() external view override returns (int256) {... */\n    tag_4:\n      tag_19\n      tag_20\n      jump\t// in\n    tag_19:\n      mload(0x40)\n      tag_21\n      swap2\n      swap1\n      tag_22\n      jump\t// in\n    tag_21:\n      mload(0x40)\n      dup1\n      swap2\n      sub\n      swap1\n      return\n        /* \"contracts/DummyChainlinkCompatibleOracle.sol\":1908:1993  function version() external pure override returns (uint256) {... */\n    tag_5:\n      tag_23\n      tag_24\n      jump\t// in\n    tag_23:\n      mload(0x40)\n      tag_25\n      swap2\n      swap1\n      tag_26\n      jump\t// in\n    tag_25:\n      mload(0x40)\n      dup1\n      swap2\n      sub\n      swap1\n      return\n        /* \"contracts/DummyChainlinkCompatibleOracle.sol\":1014:1115  function latestRound() external view override returns (uint256) {... */\n    tag_6:\n      tag_27\n      tag_28\n      jump\t// in\n    tag_27:\n      mload(0x40)\n      tag_29\n      swap2\n      swap1\n      tag_26\n      jump\t// in\n    tag_29:\n      mload(0x40)\n      dup1\n      swap2\n      sub\n      swap1\n      return\n        /* \"contracts/DummyChainlinkCompatibleOracle.sol\":1789:1902  function description() external pure override returns (string memory) {... */\n    tag_7:\n      tag_30\n      tag_31\n      jump\t// in\n    tag_30:\n      mload(0x40)\n      tag_32\n      swap2\n      swap1\n      tag_33\n      jump\t// in\n    tag_32:\n      mload(0x40)\n      dup1\n      swap2\n      sub\n      swap1\n      return\n        /* \"contracts/DummyChainlinkCompatibleOracle.sol\":896:1008  function latestTimestamp() external view override returns (uint256) {... */\n    tag_8:\n      tag_34\n      tag_35\n      jump\t// in\n    tag_34:\n      mload(0x40)\n      tag_36\n      swap2\n      swap1\n      tag_26\n      jump\t// in\n    tag_36:\n      mload(0x40)\n      dup1\n      swap2\n      sub\n      swap1\n      return\n        /* \"contracts/DummyChainlinkCompatibleOracle.sol\":1999:2476  function getRoundData(uint80 _roundId)... */\n    tag_9:\n      tag_37\n      0x04\n      dup1\n      calldatasize\n      sub\n      dup2\n      add\n      swap1\n      tag_38\n      swap2\n      swap1\n      tag_39\n      jump\t// in\n    tag_38:\n      tag_40\n      jump\t// in\n    tag_37:\n      mload(0x40)\n      tag_41\n      swap6\n      swap5\n      swap4\n      swap3\n      swap2\n      swap1\n      tag_42\n      jump\t// in\n    tag_41:\n      mload(0x40)\n      dup1\n      swap2\n      sub\n      swap1\n      return\n        /* \"contracts/DummyChainlinkCompatibleOracle.sol\":1121:1354  function getAnswer(uint256 _roundId) external view override returns (int256) {... */\n    tag_10:\n      tag_43\n      0x04\n      dup1\n      calldatasize\n      sub\n      dup2\n      add\n      swap1\n      tag_44\n      swap2\n      swap1\n      tag_45\n      jump\t// in\n    tag_44:\n      tag_46\n      jump\t// in\n    tag_43:\n      mload(0x40)\n      tag_47\n      swap2\n      swap1\n      tag_22\n      jump\t// in\n    tag_47:\n      mload(0x40)\n      dup1\n      swap2\n      sub\n      swap1\n      return\n        /* \"contracts/DummyChainlinkCompatibleOracle.sol\":1360:1606  function getTimestamp(uint256 _roundId) external view override returns (uint256) {... */\n    tag_11:\n      tag_48\n      0x04\n      dup1\n      calldatasize\n      sub\n      dup2\n      add\n      swap1\n      tag_49\n      swap2\n      swap1\n      tag_45\n      jump\t// in\n    tag_49:\n      tag_50\n      jump\t// in\n    tag_48:\n      mload(0x40)\n      tag_51\n      swap2\n      swap1\n      tag_26\n      jump\t// in\n    tag_51:\n      mload(0x40)\n      dup1\n      swap2\n      sub\n      swap1\n      return\n        /* \"contracts/DummyChainlinkCompatibleOracle.sol\":445:748  function setPrice(int256 _price) external {... */\n    tag_12:\n      tag_52\n      0x04\n      dup1\n      calldatasize\n      sub\n      dup2\n      add\n      swap1\n      tag_53\n      swap2\n      swap1\n      tag_54\n      jump\t// in\n    tag_53:\n      tag_55\n      jump\t// in\n    tag_52:\n      stop\n        /* \"contracts/DummyChainlinkCompatibleOracle.sol\":2482:2867  function latestRoundData()... */\n    tag_13:\n      tag_56\n      tag_57\n      jump\t// in\n    tag_56:\n      mload(0x40)\n      tag_58\n      swap6\n      swap5\n      swap4\n      swap3\n      swap2\n      swap1\n      tag_42\n      jump\t// in\n    tag_58:\n      mload(0x40)\n      dup1\n      swap2\n      sub\n      swap1\n      return\n        /* \"contracts/DummyChainlinkCompatibleOracle.sol\":1651:1783  function decimals() external pure override returns (uint8) {... */\n    tag_16:\n        /* \"contracts/DummyChainlinkCompatibleOracle.sol\":1703:1708  uint8 */\n      0x00\n        /* \"contracts/DummyChainlinkCompatibleOracle.sol\":1727:1728  6 */\n      0x06\n        /* \"contracts/DummyChainlinkCompatibleOracle.sol\":1720:1728  return 6 */\n      swap1\n      pop\n        /* \"contracts/DummyChainlinkCompatibleOracle.sol\":1651:1783  function decimals() external pure override returns (uint8) {... */\n      swap1\n      jump\t// out\n        /* \"contracts/DummyChainlinkCompatibleOracle.sol\":791:890  function latestAnswer() external view override returns (int256) {... */\n    tag_20:\n        /* \"contracts/DummyChainlinkCompatibleOracle.sol\":847:853  int256 */\n      0x00\n        /* \"contracts/DummyChainlinkCompatibleOracle.sol\":872:883  latestPrice */\n      dup1\n      sload\n        /* \"contracts/DummyChainlinkCompatibleOracle.sol\":865:883  return latestPrice */\n      swap1\n      pop\n        /* \"contracts/DummyChainlinkCompatibleOracle.sol\":791:890  function latestAnswer() external view override returns (int256) {... */\n      swap1\n      jump\t// out\n        /* \"contracts/DummyChainlinkCompatibleOracle.sol\":1908:1993  function version() external pure override returns (uint256) {... */\n    tag_24:\n        /* \"contracts/DummyChainlinkCompatibleOracle.sol\":1959:1966  uint256 */\n      0x00\n        /* \"contracts/DummyChainlinkCompatibleOracle.sol\":1985:1986  1 */\n      0x01\n        /* \"contracts/DummyChainlinkCompatibleOracle.sol\":1978:1986  return 1 */\n      swap1\n      pop\n        /* \"contracts/DummyChainlinkCompatibleOracle.sol\":1908:1993  function version() external pure override returns (uint256) {... */\n      swap1\n      jump\t// out\n        /* \"contracts/DummyChainlinkCompatibleOracle.sol\":1014:1115  function latestRound() external view override returns (uint256) {... */\n    tag_28:\n        /* \"contracts/DummyChainlinkCompatibleOracle.sol\":1069:1076  uint256 */\n      0x00\n        /* \"contracts/DummyChainlinkCompatibleOracle.sol\":1095:1108  latestRoundId */\n      sload(0x02)\n        /* \"contracts/DummyChainlinkCompatibleOracle.sol\":1088:1108  return latestRoundId */\n      swap1\n      pop\n        /* \"contracts/DummyChainlinkCompatibleOracle.sol\":1014:1115  function latestRound() external view override returns (uint256) {... */\n      swap1\n      jump\t// out\n        /* \"contracts/DummyChainlinkCompatibleOracle.sol\":1789:1902  function description() external pure override returns (string memory) {... */\n    tag_31:\n        /* \"contracts/DummyChainlinkCompatibleOracle.sol\":1844:1857  string memory */\n      0x60\n        /* \"contracts/DummyChainlinkCompatibleOracle.sol\":1869:1895  return \"Sample Price Feed\" */\n      mload(0x40)\n      dup1\n      0x40\n      add\n      0x40\n      mstore\n      dup1\n      0x11\n      dup2\n      mstore\n      0x20\n      add\n      0x53616d706c652050726963652046656564000000000000000000000000000000\n      dup2\n      mstore\n      pop\n      swap1\n      pop\n        /* \"contracts/DummyChainlinkCompatibleOracle.sol\":1789:1902  function description() external pure override returns (string memory) {... */\n      swap1\n      jump\t// out\n        /* \"contracts/DummyChainlinkCompatibleOracle.sol\":896:1008  function latestTimestamp() external view override returns (uint256) {... */\n    tag_35:\n        /* \"contracts/DummyChainlinkCompatibleOracle.sol\":955:962  uint256 */\n      0x00\n        /* \"contracts/DummyChainlinkCompatibleOracle.sol\":981:1001  latestPriceTimestamp */\n      sload(0x01)\n        /* \"contracts/DummyChainlinkCompatibleOracle.sol\":974:1001  return latestPriceTimestamp */\n      swap1\n      pop\n        /* \"contracts/DummyChainlinkCompatibleOracle.sol\":896:1008  function latestTimestamp() external view override returns (uint256) {... */\n      swap1\n      jump\t// out\n        /* \"contracts/DummyChainlinkCompatibleOracle.sol\":1999:2476  function getRoundData(uint80 _roundId)... */\n    tag_40:\n        /* \"contracts/DummyChainlinkCompatibleOracle.sol\":2115:2129  uint80 roundId */\n      0x00\n        /* \"contracts/DummyChainlinkCompatibleOracle.sol\":2143:2156  int256 answer */\n      dup1\n        /* \"contracts/DummyChainlinkCompatibleOracle.sol\":2170:2187  uint256 startedAt */\n      0x00\n        /* \"contracts/DummyChainlinkCompatibleOracle.sol\":2201:2218  uint256 updatedAt */\n      dup1\n        /* \"contracts/DummyChainlinkCompatibleOracle.sol\":2232:2254  uint80 answeredInRound */\n      0x00\n        /* \"contracts/DummyChainlinkCompatibleOracle.sol\":2299:2312  latestRoundId */\n      sload(0x02)\n        /* \"contracts/DummyChainlinkCompatibleOracle.sol\":2287:2295  _roundId */\n      dup7\n        /* \"contracts/DummyChainlinkCompatibleOracle.sol\":2287:2312  _roundId == latestRoundId */\n      0xffffffffffffffffffff\n      and\n      eq\n        /* \"contracts/DummyChainlinkCompatibleOracle.sol\":2279:2349  require(_roundId == latestRoundId, \"Only latest round data available\") */\n      tag_66\n      jumpi\n      mload(0x40)\n      0x08c379a000000000000000000000000000000000000000000000000000000000\n      dup2\n      mstore\n      0x04\n      add\n      tag_67\n      swap1\n      tag_68\n      jump\t// in\n    tag_67:\n      mload(0x40)\n      dup1\n      swap2\n      sub\n      swap1\n      revert\n    tag_66:\n        /* \"contracts/DummyChainlinkCompatibleOracle.sol\":2374:2387  latestRoundId */\n      sload(0x02)\n        /* \"contracts/DummyChainlinkCompatibleOracle.sol\":2390:2401  latestPrice */\n      sload(0x00)\n        /* \"contracts/DummyChainlinkCompatibleOracle.sol\":2403:2423  latestPriceTimestamp */\n      sload(0x01)\n        /* \"contracts/DummyChainlinkCompatibleOracle.sol\":2425:2445  latestPriceTimestamp */\n      sload(0x01)\n        /* \"contracts/DummyChainlinkCompatibleOracle.sol\":2454:2467  latestRoundId */\n      sload(0x02)\n        /* \"contracts/DummyChainlinkCompatibleOracle.sol\":2359:2469  return (uint80(latestRoundId), latestPrice, latestPriceTimestamp, latestPriceTimestamp, uint80(latestRoundId)) */\n      swap5\n      pop\n      swap5\n      pop\n      swap5\n      pop\n      swap5\n      pop\n      swap5\n      pop\n        /* \"contracts/DummyChainlinkCompatibleOracle.sol\":1999:2476  function getRoundData(uint80 _roundId)... */\n      swap2\n      swap4\n      swap6\n      swap1\n      swap3\n      swap5\n      pop\n      jump\t// out\n        /* \"contracts/DummyChainlinkCompatibleOracle.sol\":1121:1354  function getAnswer(uint256 _roundId) external view override returns (int256) {... */\n    tag_46:\n        /* \"contracts/DummyChainlinkCompatibleOracle.sol\":1190:1196  int256 */\n      0x00\n        /* \"contracts/DummyChainlinkCompatibleOracle.sol\":1223:1236  latestRoundId */\n      sload(0x02)\n        /* \"contracts/DummyChainlinkCompatibleOracle.sol\":1211:1219  _roundId */\n      dup3\n        /* \"contracts/DummyChainlinkCompatibleOracle.sol\":1211:1236  _roundId == latestRoundId */\n      sub\n        /* \"contracts/DummyChainlinkCompatibleOracle.sol\":1208:1281  if(_roundId == latestRoundId) {... */\n      tag_70\n      jumpi\n        /* \"contracts/DummyChainlinkCompatibleOracle.sol\":1259:1270  latestPrice */\n      sload(0x00)\n        /* \"contracts/DummyChainlinkCompatibleOracle.sol\":1252:1270  return latestPrice */\n      swap1\n      pop\n      jump(tag_69)\n        /* \"contracts/DummyChainlinkCompatibleOracle.sol\":1208:1281  if(_roundId == latestRoundId) {... */\n    tag_70:\n        /* \"contracts/DummyChainlinkCompatibleOracle.sol\":1297:1298  0 */\n      0x00\n        /* \"contracts/DummyChainlinkCompatibleOracle.sol\":1290:1298  return 0 */\n      swap1\n      pop\n        /* \"contracts/DummyChainlinkCompatibleOracle.sol\":1121:1354  function getAnswer(uint256 _roundId) external view override returns (int256) {... */\n    tag_69:\n      swap2\n      swap1\n      pop\n      jump\t// out\n        /* \"contracts/DummyChainlinkCompatibleOracle.sol\":1360:1606  function getTimestamp(uint256 _roundId) external view override returns (uint256) {... */\n    tag_50:\n        /* \"contracts/DummyChainlinkCompatibleOracle.sol\":1432:1439  uint256 */\n      0x00\n        /* \"contracts/DummyChainlinkCompatibleOracle.sol\":1466:1479  latestRoundId */\n      sload(0x02)\n        /* \"contracts/DummyChainlinkCompatibleOracle.sol\":1454:1462  _roundId */\n      dup3\n        /* \"contracts/DummyChainlinkCompatibleOracle.sol\":1454:1479  _roundId == latestRoundId */\n      sub\n        /* \"contracts/DummyChainlinkCompatibleOracle.sol\":1451:1533  if(_roundId == latestRoundId) {... */\n      tag_72\n      jumpi\n        /* \"contracts/DummyChainlinkCompatibleOracle.sol\":1502:1522  latestPriceTimestamp */\n      sload(0x01)\n        /* \"contracts/DummyChainlinkCompatibleOracle.sol\":1495:1522  return latestPriceTimestamp */\n      swap1\n      pop\n      jump(tag_71)\n        /* \"contracts/DummyChainlinkCompatibleOracle.sol\":1451:1533  if(_roundId == latestRoundId) {... */\n    tag_72:\n        /* \"contracts/DummyChainlinkCompatibleOracle.sol\":1549:1550  0 */\n      0x00\n        /* \"contracts/DummyChainlinkCompatibleOracle.sol\":1542:1550  return 0 */\n      swap1\n      pop\n        /* \"contracts/DummyChainlinkCompatibleOracle.sol\":1360:1606  function getTimestamp(uint256 _roundId) external view override returns (uint256) {... */\n    tag_71:\n      swap2\n      swap1\n      pop\n      jump\t// out\n        /* \"contracts/DummyChainlinkCompatibleOracle.sol\":445:748  function setPrice(int256 _price) external {... */\n    tag_55:\n        /* \"contracts/DummyChainlinkCompatibleOracle.sol\":511:517  _price */\n      dup1\n        /* \"contracts/DummyChainlinkCompatibleOracle.sol\":497:508  latestPrice */\n      0x00\n        /* \"contracts/DummyChainlinkCompatibleOracle.sol\":497:517  latestPrice = _price */\n      dup2\n      swap1\n      sstore\n      pop\n        /* \"contracts/DummyChainlinkCompatibleOracle.sol\":550:565  block.timestamp */\n      timestamp\n        /* \"contracts/DummyChainlinkCompatibleOracle.sol\":527:547  latestPriceTimestamp */\n      0x01\n        /* \"contracts/DummyChainlinkCompatibleOracle.sol\":527:565  latestPriceTimestamp = block.timestamp */\n      dup2\n      swap1\n      sstore\n      pop\n        /* \"contracts/DummyChainlinkCompatibleOracle.sol\":575:588  latestRoundId */\n      0x02\n      0x00\n        /* \"contracts/DummyChainlinkCompatibleOracle.sol\":575:590  latestRoundId++ */\n      dup2\n      sload\n      dup1\n      swap3\n      swap2\n      swap1\n      tag_74\n      swap1\n      tag_75\n      jump\t// in\n    tag_74:\n      swap2\n      swap1\n      pop\n      sstore\n      pop\n        /* \"contracts/DummyChainlinkCompatibleOracle.sol\":633:646  latestRoundId */\n      sload(0x02)\n        /* \"contracts/DummyChainlinkCompatibleOracle.sol\":620:631  latestPrice */\n      sload(0x00)\n        /* \"contracts/DummyChainlinkCompatibleOracle.sol\":606:669  AnswerUpdated(latestPrice, latestRoundId, latestPriceTimestamp) */\n      0x0559884fd3a460db3073b7fc896cc77986f16e378210ded43186175bf646fc5f\n        /* \"contracts/DummyChainlinkCompatibleOracle.sol\":648:668  latestPriceTimestamp */\n      sload(0x01)\n        /* \"contracts/DummyChainlinkCompatibleOracle.sol\":606:669  AnswerUpdated(latestPrice, latestRoundId, latestPriceTimestamp) */\n      mload(0x40)\n      tag_76\n      swap2\n      swap1\n      tag_26\n      jump\t// in\n    tag_76:\n      mload(0x40)\n      dup1\n      swap2\n      sub\n      swap1\n      log3\n        /* \"contracts/DummyChainlinkCompatibleOracle.sol\":708:718  msg.sender */\n      caller\n        /* \"contracts/DummyChainlinkCompatibleOracle.sol\":684:741  NewRound(latestRoundId, msg.sender, latestPriceTimestamp) */\n      0xffffffffffffffffffffffffffffffffffffffff\n      and\n        /* \"contracts/DummyChainlinkCompatibleOracle.sol\":693:706  latestRoundId */\n      sload(0x02)\n        /* \"contracts/DummyChainlinkCompatibleOracle.sol\":684:741  NewRound(latestRoundId, msg.sender, latestPriceTimestamp) */\n      0x0109fc6f55cf40689f02fbaad7af7fe7bbac8a3d2186600afc7d3e10cac60271\n        /* \"contracts/DummyChainlinkCompatibleOracle.sol\":720:740  latestPriceTimestamp */\n      sload(0x01)\n        /* \"contracts/DummyChainlinkCompatibleOracle.sol\":684:741  NewRound(latestRoundId, msg.sender, latestPriceTimestamp) */\n      mload(0x40)\n      tag_77\n      swap2\n      swap1\n      tag_26\n      jump\t// in\n    tag_77:\n      mload(0x40)\n      dup1\n      swap2\n      sub\n      swap1\n      log3\n        /* \"contracts/DummyChainlinkCompatibleOracle.sol\":445:748  function setPrice(int256 _price) external {... */\n      pop\n      jump\t// out\n        /* \"contracts/DummyChainlinkCompatibleOracle.sol\":2482:2867  function latestRoundData()... */\n    tag_57:\n        /* \"contracts/DummyChainlinkCompatibleOracle.sol\":2586:2600  uint80 roundId */\n      0x00\n        /* \"contracts/DummyChainlinkCompatibleOracle.sol\":2614:2627  int256 answer */\n      dup1\n        /* \"contracts/DummyChainlinkCompatibleOracle.sol\":2641:2658  uint256 startedAt */\n      0x00\n        /* \"contracts/DummyChainlinkCompatibleOracle.sol\":2672:2689  uint256 updatedAt */\n      dup1\n        /* \"contracts/DummyChainlinkCompatibleOracle.sol\":2703:2725  uint80 answeredInRound */\n      0x00\n        /* \"contracts/DummyChainlinkCompatibleOracle.sol\":2765:2778  latestRoundId */\n      sload(0x02)\n        /* \"contracts/DummyChainlinkCompatibleOracle.sol\":2781:2792  latestPrice */\n      sload(0x00)\n        /* \"contracts/DummyChainlinkCompatibleOracle.sol\":2794:2814  latestPriceTimestamp */\n      sload(0x01)\n        /* \"contracts/DummyChainlinkCompatibleOracle.sol\":2816:2836  latestPriceTimestamp */\n      sload(0x01)\n        /* \"contracts/DummyChainlinkCompatibleOracle.sol\":2845:2858  latestRoundId */\n      sload(0x02)\n        /* \"contracts/DummyChainlinkCompatibleOracle.sol\":2750:2860  return (uint80(latestRoundId), latestPrice, latestPriceTimestamp, latestPriceTimestamp, uint80(latestRoundId)) */\n      swap5\n      pop\n      swap5\n      pop\n      swap5\n      pop\n      swap5\n      pop\n      swap5\n      pop\n        /* \"contracts/DummyChainlinkCompatibleOracle.sol\":2482:2867  function latestRoundData()... */\n      swap1\n      swap2\n      swap3\n      swap4\n      swap5\n      jump\t// out\n        /* \"#utility.yul\":7:93   */\n    tag_79:\n        /* \"#utility.yul\":42:49   */\n      0x00\n        /* \"#utility.yul\":82:86   */\n      0xff\n        /* \"#utility.yul\":75:80   */\n      dup3\n        /* \"#utility.yul\":71:87   */\n      and\n        /* \"#utility.yul\":60:87   */\n      swap1\n      pop\n        /* \"#utility.yul\":7:93   */\n      swap2\n      swap1\n      pop\n      jump\t// out\n        /* \"#utility.yul\":99:211   */\n    tag_80:\n        /* \"#utility.yul\":182:204   */\n      tag_107\n        /* \"#utility.yul\":198:203   */\n      dup2\n        /* \"#utility.yul\":182:204   */\n      tag_79\n      jump\t// in\n    tag_107:\n        /* \"#utility.yul\":177:180   */\n      dup3\n        /* \"#utility.yul\":170:205   */\n      mstore\n        /* \"#utility.yul\":99:211   */\n      pop\n      pop\n      jump\t// out\n        /* \"#utility.yul\":217:431   */\n    tag_18:\n        /* \"#utility.yul\":306:310   */\n      0x00\n        /* \"#utility.yul\":344:346   */\n      0x20\n        /* \"#utility.yul\":333:342   */\n      dup3\n        /* \"#utility.yul\":329:347   */\n      add\n        /* \"#utility.yul\":321:347   */\n      swap1\n      pop\n        /* \"#utility.yul\":357:424   */\n      tag_109\n        /* \"#utility.yul\":421:422   */\n      0x00\n        /* \"#utility.yul\":410:419   */\n      dup4\n        /* \"#utility.yul\":406:423   */\n      add\n        /* \"#utility.yul\":397:403   */\n      dup5\n        /* \"#utility.yul\":357:424   */\n      tag_80\n      jump\t// in\n    tag_109:\n        /* \"#utility.yul\":217:431   */\n      swap3\n      swap2\n      pop\n      pop\n      jump\t// out\n        /* \"#utility.yul\":437:513   */\n    tag_81:\n        /* \"#utility.yul\":473:480   */\n      0x00\n        /* \"#utility.yul\":502:507   */\n      dup2\n        /* \"#utility.yul\":491:507   */\n      swap1\n      pop\n        /* \"#utility.yul\":437:513   */\n      swap2\n      swap1\n      pop\n      jump\t// out\n        /* \"#utility.yul\":519:634   */\n    tag_82:\n        /* \"#utility.yul\":604:627   */\n      tag_112\n        /* \"#utility.yul\":621:626   */\n      dup2\n        /* \"#utility.yul\":604:627   */\n      tag_81\n      jump\t// in\n    tag_112:\n        /* \"#utility.yul\":599:602   */\n      dup3\n        /* \"#utility.yul\":592:628   */\n      mstore\n        /* \"#utility.yul\":519:634   */\n      pop\n      pop\n      jump\t// out\n        /* \"#utility.yul\":640:858   */\n    tag_22:\n        /* \"#utility.yul\":731:735   */\n      0x00\n        /* \"#utility.yul\":769:771   */\n      0x20\n        /* \"#utility.yul\":758:767   */\n      dup3\n        /* \"#utility.yul\":754:772   */\n      add\n        /* \"#utility.yul\":746:772   */\n      swap1\n      pop\n        /* \"#utility.yul\":782:851   */\n      tag_114\n        /* \"#utility.yul\":848:849   */\n      0x00\n        /* \"#utility.yul\":837:846   */\n      dup4\n        /* \"#utility.yul\":833:850   */\n      add\n        /* \"#utility.yul\":824:830   */\n      dup5\n        /* \"#utility.yul\":782:851   */\n      tag_82\n      jump\t// in\n    tag_114:\n        /* \"#utility.yul\":640:858   */\n      swap3\n      swap2\n      pop\n      pop\n      jump\t// out\n        /* \"#utility.yul\":864:941   */\n    tag_83:\n        /* \"#utility.yul\":901:908   */\n      0x00\n        /* \"#utility.yul\":930:935   */\n      dup2\n        /* \"#utility.yul\":919:935   */\n      swap1\n      pop\n        /* \"#utility.yul\":864:941   */\n      swap2\n      swap1\n      pop\n      jump\t// out\n        /* \"#utility.yul\":947:1065   */\n    tag_84:\n        /* \"#utility.yul\":1034:1058   */\n      tag_117\n        /* \"#utility.yul\":1052:1057   */\n      dup2\n        /* \"#utility.yul\":1034:1058   */\n      tag_83\n      jump\t// in\n    tag_117:\n        /* \"#utility.yul\":1029:1032   */\n      dup3\n        /* \"#utility.yul\":1022:1059   */\n      mstore\n        /* \"#utility.yul\":947:1065   */\n      pop\n      pop\n      jump\t// out\n        /* \"#utility.yul\":1071:1293   */\n    tag_26:\n        /* \"#utility.yul\":1164:1168   */\n      0x00\n        /* \"#utility.yul\":1202:1204   */\n      0x20\n        /* \"#utility.yul\":1191:1200   */\n      dup3\n        /* \"#utility.yul\":1187:1205   */\n      add\n        /* \"#utility.yul\":1179:1205   */\n      swap1\n      pop\n        /* \"#utility.yul\":1215:1286   */\n      tag_119\n        /* \"#utility.yul\":1283:1284   */\n      0x00\n        /* \"#utility.yul\":1272:1281   */\n      dup4\n        /* \"#utility.yul\":1268:1285   */\n      add\n        /* \"#utility.yul\":1259:1265   */\n      dup5\n        /* \"#utility.yul\":1215:1286   */\n      tag_84\n      jump\t// in\n    tag_119:\n        /* \"#utility.yul\":1071:1293   */\n      swap3\n      swap2\n      pop\n      pop\n      jump\t// out\n        /* \"#utility.yul\":1299:1398   */\n    tag_85:\n        /* \"#utility.yul\":1351:1357   */\n      0x00\n        /* \"#utility.yul\":1385:1390   */\n      dup2\n        /* \"#utility.yul\":1379:1391   */\n      mload\n        /* \"#utility.yul\":1369:1391   */\n      swap1\n      pop\n        /* \"#utility.yul\":1299:1398   */\n      swap2\n      swap1\n      pop\n      jump\t// out\n        /* \"#utility.yul\":1404:1573   */\n    tag_86:\n        /* \"#utility.yul\":1488:1499   */\n      0x00\n        /* \"#utility.yul\":1522:1528   */\n      dup3\n        /* \"#utility.yul\":1517:1520   */\n      dup3\n        /* \"#utility.yul\":1510:1529   */\n      mstore\n        /* \"#utility.yul\":1562:1566   */\n      0x20\n        /* \"#utility.yul\":1557:1560   */\n      dup3\n        /* \"#utility.yul\":1553:1567   */\n      add\n        /* \"#utility.yul\":1538:1567   */\n      swap1\n      pop\n        /* \"#utility.yul\":1404:1573   */\n      swap3\n      swap2\n      pop\n      pop\n      jump\t// out\n        /* \"#utility.yul\":1579:1825   */\n    tag_87:\n        /* \"#utility.yul\":1660:1661   */\n      0x00\n        /* \"#utility.yul\":1670:1783   */\n    tag_123:\n        /* \"#utility.yul\":1684:1690   */\n      dup4\n        /* \"#utility.yul\":1681:1682   */\n      dup2\n        /* \"#utility.yul\":1678:1691   */\n      lt\n        /* \"#utility.yul\":1670:1783   */\n      iszero\n      tag_125\n      jumpi\n        /* \"#utility.yul\":1769:1770   */\n      dup1\n        /* \"#utility.yul\":1764:1767   */\n      dup3\n        /* \"#utility.yul\":1760:1771   */\n      add\n        /* \"#utility.yul\":1754:1772   */\n      mload\n        /* \"#utility.yul\":1750:1751   */\n      dup2\n        /* \"#utility.yul\":1745:1748   */\n      dup5\n        /* \"#utility.yul\":1741:1752   */\n      add\n        /* \"#utility.yul\":1734:1773   */\n      mstore\n        /* \"#utility.yul\":1706:1708   */\n      0x20\n        /* \"#utility.yul\":1703:1704   */\n      dup2\n        /* \"#utility.yul\":1699:1709   */\n      add\n        /* \"#utility.yul\":1694:1709   */\n      swap1\n      pop\n        /* \"#utility.yul\":1670:1783   */\n      jump(tag_123)\n    tag_125:\n        /* \"#utility.yul\":1817:1818   */\n      0x00\n        /* \"#utility.yul\":1808:1814   */\n      dup5\n        /* \"#utility.yul\":1803:1806   */\n      dup5\n        /* \"#utility.yul\":1799:1815   */\n      add\n        /* \"#utility.yul\":1792:1819   */\n      mstore\n        /* \"#utility.yul\":1641:1825   */\n      pop\n        /* \"#utility.yul\":1579:1825   */\n      pop\n      pop\n      pop\n      jump\t// out\n        /* \"#utility.yul\":1831:1933   */\n    tag_88:\n        /* \"#utility.yul\":1872:1878   */\n      0x00\n        /* \"#utility.yul\":1923:1925   */\n      0x1f\n        /* \"#utility.yul\":1919:1926   */\n      not\n        /* \"#utility.yul\":1914:1916   */\n      0x1f\n        /* \"#utility.yul\":1907:1912   */\n      dup4\n        /* \"#utility.yul\":1903:1917   */\n      add\n        /* \"#utility.yul\":1899:1927   */\n      and\n        /* \"#utility.yul\":1889:1927   */\n      swap1\n      pop\n        /* \"#utility.yul\":1831:1933   */\n      swap2\n      swap1\n      pop\n      jump\t// out\n        /* \"#utility.yul\":1939:2316   */\n    tag_89:\n        /* \"#utility.yul\":2027:2030   */\n      0x00\n        /* \"#utility.yul\":2055:2094   */\n      tag_128\n        /* \"#utility.yul\":2088:2093   */\n      dup3\n        /* \"#utility.yul\":2055:2094   */\n      tag_85\n      jump\t// in\n    tag_128:\n        /* \"#utility.yul\":2110:2181   */\n      tag_129\n        /* \"#utility.yul\":2174:2180   */\n      dup2\n        /* \"#utility.yul\":2169:2172   */\n      dup6\n        /* \"#utility.yul\":2110:2181   */\n      tag_86\n      jump\t// in\n    tag_129:\n        /* \"#utility.yul\":2103:2181   */\n      swap4\n      pop\n        /* \"#utility.yul\":2190:2255   */\n      tag_130\n        /* \"#utility.yul\":2248:2254   */\n      dup2\n        /* \"#utility.yul\":2243:2246   */\n      dup6\n        /* \"#utility.yul\":2236:2240   */\n      0x20\n        /* \"#utility.yul\":2229:2234   */\n      dup7\n        /* \"#utility.yul\":2225:2241   */\n      add\n        /* \"#utility.yul\":2190:2255   */\n      tag_87\n      jump\t// in\n    tag_130:\n        /* \"#utility.yul\":2280:2309   */\n      tag_131\n        /* \"#utility.yul\":2302:2308   */\n      dup2\n        /* \"#utility.yul\":2280:2309   */\n      tag_88\n      jump\t// in\n    tag_131:\n        /* \"#utility.yul\":2275:2278   */\n      dup5\n        /* \"#utility.yul\":2271:2310   */\n      add\n        /* \"#utility.yul\":2264:2310   */\n      swap2\n      pop\n        /* \"#utility.yul\":2031:2316   */\n      pop\n        /* \"#utility.yul\":1939:2316   */\n      swap3\n      swap2\n      pop\n      pop\n      jump\t// out\n        /* \"#utility.yul\":2322:2635   */\n    tag_33:\n        /* \"#utility.yul\":2435:2439   */\n      0x00\n        /* \"#utility.yul\":2473:2475   */\n      0x20\n        /* \"#utility.yul\":2462:2471   */\n      dup3\n        /* \"#utility.yul\":2458:2476   */\n      add\n        /* \"#utility.yul\":2450:2476   */\n      swap1\n      pop\n        /* \"#utility.yul\":2522:2531   */\n      dup2\n        /* \"#utility.yul\":2516:2520   */\n      dup2\n        /* \"#utility.yul\":2512:2532   */\n      sub\n        /* \"#utility.yul\":2508:2509   */\n      0x00\n        /* \"#utility.yul\":2497:2506   */\n      dup4\n        /* \"#utility.yul\":2493:2510   */\n      add\n        /* \"#utility.yul\":2486:2533   */\n      mstore\n        /* \"#utility.yul\":2550:2628   */\n      tag_133\n        /* \"#utility.yul\":2623:2627   */\n      dup2\n        /* \"#utility.yul\":2614:2620   */\n      dup5\n        /* \"#utility.yul\":2550:2628   */\n      tag_89\n      jump\t// in\n    tag_133:\n        /* \"#utility.yul\":2542:2628   */\n      swap1\n      pop\n        /* \"#utility.yul\":2322:2635   */\n      swap3\n      swap2\n      pop\n      pop\n      jump\t// out\n        /* \"#utility.yul\":2722:2839   */\n    tag_91:\n        /* \"#utility.yul\":2831:2832   */\n      0x00\n        /* \"#utility.yul\":2828:2829   */\n      dup1\n        /* \"#utility.yul\":2821:2833   */\n      revert\n        /* \"#utility.yul\":2968:3073   */\n    tag_93:\n        /* \"#utility.yul\":3004:3011   */\n      0x00\n        /* \"#utility.yul\":3044:3066   */\n      0xffffffffffffffffffff\n        /* \"#utility.yul\":3037:3042   */\n      dup3\n        /* \"#utility.yul\":3033:3067   */\n      and\n        /* \"#utility.yul\":3022:3067   */\n      swap1\n      pop\n        /* \"#utility.yul\":2968:3073   */\n      swap2\n      swap1\n      pop\n      jump\t// out\n        /* \"#utility.yul\":3079:3199   */\n    tag_94:\n        /* \"#utility.yul\":3151:3174   */\n      tag_139\n        /* \"#utility.yul\":3168:3173   */\n      dup2\n        /* \"#utility.yul\":3151:3174   */\n      tag_93\n      jump\t// in\n    tag_139:\n        /* \"#utility.yul\":3144:3149   */\n      dup2\n        /* \"#utility.yul\":3141:3175   */\n      eq\n        /* \"#utility.yul\":3131:3193   */\n      tag_140\n      jumpi\n        /* \"#utility.yul\":3189:3190   */\n      0x00\n        /* \"#utility.yul\":3186:3187   */\n      dup1\n        /* \"#utility.yul\":3179:3191   */\n      revert\n        /* \"#utility.yul\":3131:3193   */\n    tag_140:\n        /* \"#utility.yul\":3079:3199   */\n      pop\n      jump\t// out\n        /* \"#utility.yul\":3205:3342   */\n    tag_95:\n        /* \"#utility.yul\":3250:3255   */\n      0x00\n        /* \"#utility.yul\":3288:3294   */\n      dup2\n        /* \"#utility.yul\":3275:3295   */\n      calldataload\n        /* \"#utility.yul\":3266:3295   */\n      swap1\n      pop\n        /* \"#utility.yul\":3304:3336   */\n      tag_142\n        /* \"#utility.yul\":3330:3335   */\n      dup2\n        /* \"#utility.yul\":3304:3336   */\n      tag_94\n      jump\t// in\n    tag_142:\n        /* \"#utility.yul\":3205:3342   */\n      swap3\n      swap2\n      pop\n      pop\n      jump\t// out\n        /* \"#utility.yul\":3348:3675   */\n    tag_39:\n        /* \"#utility.yul\":3406:3412   */\n      0x00\n        /* \"#utility.yul\":3455:3457   */\n      0x20\n        /* \"#utility.yul\":3443:3452   */\n      dup3\n        /* \"#utility.yul\":3434:3441   */\n      dup5\n        /* \"#utility.yul\":3430:3453   */\n      sub\n        /* \"#utility.yul\":3426:3458   */\n      slt\n        /* \"#utility.yul\":3423:3542   */\n      iszero\n      tag_144\n      jumpi\n        /* \"#utility.yul\":3461:3540   */\n      tag_145\n      tag_91\n      jump\t// in\n    tag_145:\n        /* \"#utility.yul\":3423:3542   */\n    tag_144:\n        /* \"#utility.yul\":3581:3582   */\n      0x00\n        /* \"#utility.yul\":3606:3658   */\n      tag_146\n        /* \"#utility.yul\":3650:3657   */\n      dup5\n        /* \"#utility.yul\":3641:3647   */\n      dup3\n        /* \"#utility.yul\":3630:3639   */\n      dup6\n        /* \"#utility.yul\":3626:3648   */\n      add\n        /* \"#utility.yul\":3606:3658   */\n      tag_95\n      jump\t// in\n    tag_146:\n        /* \"#utility.yul\":3596:3658   */\n      swap2\n      pop\n        /* \"#utility.yul\":3552:3668   */\n      pop\n        /* \"#utility.yul\":3348:3675   */\n      swap3\n      swap2\n      pop\n      pop\n      jump\t// out\n        /* \"#utility.yul\":3681:3796   */\n    tag_96:\n        /* \"#utility.yul\":3766:3789   */\n      tag_148\n        /* \"#utility.yul\":3783:3788   */\n      dup2\n        /* \"#utility.yul\":3766:3789   */\n      tag_93\n      jump\t// in\n    tag_148:\n        /* \"#utility.yul\":3761:3764   */\n      dup3\n        /* \"#utility.yul\":3754:3790   */\n      mstore\n        /* \"#utility.yul\":3681:3796   */\n      pop\n      pop\n      jump\t// out\n        /* \"#utility.yul\":3802:4454   */\n    tag_42:\n        /* \"#utility.yul\":4001:4005   */\n      0x00\n        /* \"#utility.yul\":4039:4042   */\n      0xa0\n        /* \"#utility.yul\":4028:4037   */\n      dup3\n        /* \"#utility.yul\":4024:4043   */\n      add\n        /* \"#utility.yul\":4016:4043   */\n      swap1\n      pop\n        /* \"#utility.yul\":4053:4122   */\n      tag_150\n        /* \"#utility.yul\":4119:4120   */\n      0x00\n        /* \"#utility.yul\":4108:4117   */\n      dup4\n        /* \"#utility.yul\":4104:4121   */\n      add\n        /* \"#utility.yul\":4095:4101   */\n      dup9\n        /* \"#utility.yul\":4053:4122   */\n      tag_96\n      jump\t// in\n    tag_150:\n        /* \"#utility.yul\":4132:4202   */\n      tag_151\n        /* \"#utility.yul\":4198:4200   */\n      0x20\n        /* \"#utility.yul\":4187:4196   */\n      dup4\n        /* \"#utility.yul\":4183:4201   */\n      add\n        /* \"#utility.yul\":4174:4180   */\n      dup8\n        /* \"#utility.yul\":4132:4202   */\n      tag_82\n      jump\t// in\n    tag_151:\n        /* \"#utility.yul\":4212:4284   */\n      tag_152\n        /* \"#utility.yul\":4280:4282   */\n      0x40\n        /* \"#utility.yul\":4269:4278   */\n      dup4\n        /* \"#utility.yul\":4265:4283   */\n      add\n        /* \"#utility.yul\":4256:4262   */\n      dup7\n        /* \"#utility.yul\":4212:4284   */\n      tag_84\n      jump\t// in\n    tag_152:\n        /* \"#utility.yul\":4294:4366   */\n      tag_153\n        /* \"#utility.yul\":4362:4364   */\n      0x60\n        /* \"#utility.yul\":4351:4360   */\n      dup4\n        /* \"#utility.yul\":4347:4365   */\n      add\n        /* \"#utility.yul\":4338:4344   */\n      dup6\n        /* \"#utility.yul\":4294:4366   */\n      tag_84\n      jump\t// in\n    tag_153:\n        /* \"#utility.yul\":4376:4447   */\n      tag_154\n        /* \"#utility.yul\":4442:4445   */\n      0x80\n        /* \"#utility.yul\":4431:4440   */\n      dup4\n        /* \"#utility.yul\":4427:4446   */\n      add\n        /* \"#utility.yul\":4418:4424   */\n      dup5\n        /* \"#utility.yul\":4376:4447   */\n      tag_96\n      jump\t// in\n    tag_154:\n        /* \"#utility.yul\":3802:4454   */\n      swap7\n      swap6\n      pop\n      pop\n      pop\n      pop\n      pop\n      pop\n      jump\t// out\n        /* \"#utility.yul\":4460:4582   */\n    tag_97:\n        /* \"#utility.yul\":4533:4557   */\n      tag_156\n        /* \"#utility.yul\":4551:4556   */\n      dup2\n        /* \"#utility.yul\":4533:4557   */\n      tag_83\n      jump\t// in\n    tag_156:\n        /* \"#utility.yul\":4526:4531   */\n      dup2\n        /* \"#utility.yul\":4523:4558   */\n      eq\n        /* \"#utility.yul\":4513:4576   */\n      tag_157\n      jumpi\n        /* \"#utility.yul\":4572:4573   */\n      0x00\n        /* \"#utility.yul\":4569:4570   */\n      dup1\n        /* \"#utility.yul\":4562:4574   */\n      revert\n        /* \"#utility.yul\":4513:4576   */\n    tag_157:\n        /* \"#utility.yul\":4460:4582   */\n      pop\n      jump\t// out\n        /* \"#utility.yul\":4588:4727   */\n    tag_98:\n        /* \"#utility.yul\":4634:4639   */\n      0x00\n        /* \"#utility.yul\":4672:4678   */\n      dup2\n        /* \"#utility.yul\":4659:4679   */\n      calldataload\n        /* \"#utility.yul\":4650:4679   */\n      swap1\n      pop\n        /* \"#utility.yul\":4688:4721   */\n      tag_159\n        /* \"#utility.yul\":4715:4720   */\n      dup2\n        /* \"#utility.yul\":4688:4721   */\n      tag_97\n      jump\t// in\n    tag_159:\n        /* \"#utility.yul\":4588:4727   */\n      swap3\n      swap2\n      pop\n      pop\n      jump\t// out\n        /* \"#utility.yul\":4733:5062   */\n    tag_45:\n        /* \"#utility.yul\":4792:4798   */\n      0x00\n        /* \"#utility.yul\":4841:4843   */\n      0x20\n        /* \"#utility.yul\":4829:4838   */\n      dup3\n        /* \"#utility.yul\":4820:4827   */\n      dup5\n        /* \"#utility.yul\":4816:4839   */\n      sub\n        /* \"#utility.yul\":4812:4844   */\n      slt\n        /* \"#utility.yul\":4809:4928   */\n      iszero\n      tag_161\n      jumpi\n        /* \"#utility.yul\":4847:4926   */\n      tag_162\n      tag_91\n      jump\t// in\n    tag_162:\n        /* \"#utility.yul\":4809:4928   */\n    tag_161:\n        /* \"#utility.yul\":4967:4968   */\n      0x00\n        /* \"#utility.yul\":4992:5045   */\n      tag_163\n        /* \"#utility.yul\":5037:5044   */\n      dup5\n        /* \"#utility.yul\":5028:5034   */\n      dup3\n        /* \"#utility.yul\":5017:5026   */\n      dup6\n        /* \"#utility.yul\":5013:5035   */\n      add\n        /* \"#utility.yul\":4992:5045   */\n      tag_98\n      jump\t// in\n    tag_163:\n        /* \"#utility.yul\":4982:5045   */\n      swap2\n      pop\n        /* \"#utility.yul\":4938:5055   */\n      pop\n        /* \"#utility.yul\":4733:5062   */\n      swap3\n      swap2\n      pop\n      pop\n      jump\t// out\n        /* \"#utility.yul\":5068:5188   */\n    tag_99:\n        /* \"#utility.yul\":5140:5163   */\n      tag_165\n        /* \"#utility.yul\":5157:5162   */\n      dup2\n        /* \"#utility.yul\":5140:5163   */\n      tag_81\n      jump\t// in\n    tag_165:\n        /* \"#utility.yul\":5133:5138   */\n      dup2\n        /* \"#utility.yul\":5130:5164   */\n      eq\n        /* \"#utility.yul\":5120:5182   */\n      tag_166\n      jumpi\n        /* \"#utility.yul\":5178:5179   */\n      0x00\n        /* \"#utility.yul\":5175:5176   */\n      dup1\n        /* \"#utility.yul\":5168:5180   */\n      revert\n        /* \"#utility.yul\":5120:5182   */\n    tag_166:\n        /* \"#utility.yul\":5068:5188   */\n      pop\n      jump\t// out\n        /* \"#utility.yul\":5194:5331   */\n    tag_100:\n        /* \"#utility.yul\":5239:5244   */\n      0x00\n        /* \"#utility.yul\":5277:5283   */\n      dup2\n        /* \"#utility.yul\":5264:5284   */\n      calldataload\n        /* \"#utility.yul\":5255:5284   */\n      swap1\n      pop\n        /* \"#utility.yul\":5293:5325   */\n      tag_168\n        /* \"#utility.yul\":5319:5324   */\n      dup2\n        /* \"#utility.yul\":5293:5325   */\n      tag_99\n      jump\t// in\n    tag_168:\n        /* \"#utility.yul\":5194:5331   */\n      swap3\n      swap2\n      pop\n      pop\n      jump\t// out\n        /* \"#utility.yul\":5337:5664   */\n    tag_54:\n        /* \"#utility.yul\":5395:5401   */\n      0x00\n        /* \"#utility.yul\":5444:5446   */\n      0x20\n        /* \"#utility.yul\":5432:5441   */\n      dup3\n        /* \"#utility.yul\":5423:5430   */\n      dup5\n        /* \"#utility.yul\":5419:5442   */\n      sub\n        /* \"#utility.yul\":5415:5447   */\n      slt\n        /* \"#utility.yul\":5412:5531   */\n      iszero\n      tag_170\n      jumpi\n        /* \"#utility.yul\":5450:5529   */\n      tag_171\n      tag_91\n      jump\t// in\n    tag_171:\n        /* \"#utility.yul\":5412:5531   */\n    tag_170:\n        /* \"#utility.yul\":5570:5571   */\n      0x00\n        /* \"#utility.yul\":5595:5647   */\n      tag_172\n        /* \"#utility.yul\":5639:5646   */\n      dup5\n        /* \"#utility.yul\":5630:5636   */\n      dup3\n        /* \"#utility.yul\":5619:5628   */\n      dup6\n        /* \"#utility.yul\":5615:5637   */\n      add\n        /* \"#utility.yul\":5595:5647   */\n      tag_100\n      jump\t// in\n    tag_172:\n        /* \"#utility.yul\":5585:5647   */\n      swap2\n      pop\n        /* \"#utility.yul\":5541:5657   */\n      pop\n        /* \"#utility.yul\":5337:5664   */\n      swap3\n      swap2\n      pop\n      pop\n      jump\t// out\n        /* \"#utility.yul\":5670:5852   */\n    tag_101:\n        /* \"#utility.yul\":5810:5844   */\n      0x4f6e6c79206c617465737420726f756e64206461746120617661696c61626c65\n        /* \"#utility.yul\":5806:5807   */\n      0x00\n        /* \"#utility.yul\":5798:5804   */\n      dup3\n        /* \"#utility.yul\":5794:5808   */\n      add\n        /* \"#utility.yul\":5787:5845   */\n      mstore\n        /* \"#utility.yul\":5670:5852   */\n      pop\n      jump\t// out\n        /* \"#utility.yul\":5858:6224   */\n    tag_102:\n        /* \"#utility.yul\":6000:6003   */\n      0x00\n        /* \"#utility.yul\":6021:6088   */\n      tag_175\n        /* \"#utility.yul\":6085:6087   */\n      0x20\n        /* \"#utility.yul\":6080:6083   */\n      dup4\n        /* \"#utility.yul\":6021:6088   */\n      tag_86\n      jump\t// in\n    tag_175:\n        /* \"#utility.yul\":6014:6088   */\n      swap2\n      pop\n        /* \"#utility.yul\":6097:6190   */\n      tag_176\n        /* \"#utility.yul\":6186:6189   */\n      dup3\n        /* \"#utility.yul\":6097:6190   */\n      tag_101\n      jump\t// in\n    tag_176:\n        /* \"#utility.yul\":6215:6217   */\n      0x20\n        /* \"#utility.yul\":6210:6213   */\n      dup3\n        /* \"#utility.yul\":6206:6218   */\n      add\n        /* \"#utility.yul\":6199:6218   */\n      swap1\n      pop\n        /* \"#utility.yul\":5858:6224   */\n      swap2\n      swap1\n      pop\n      jump\t// out\n        /* \"#utility.yul\":6230:6649   */\n    tag_68:\n        /* \"#utility.yul\":6396:6400   */\n      0x00\n        /* \"#utility.yul\":6434:6436   */\n      0x20\n        /* \"#utility.yul\":6423:6432   */\n      dup3\n        /* \"#utility.yul\":6419:6437   */\n      add\n        /* \"#utility.yul\":6411:6437   */\n      swap1\n      pop\n        /* \"#utility.yul\":6483:6492   */\n      dup2\n        /* \"#utility.yul\":6477:6481   */\n      dup2\n        /* \"#utility.yul\":6473:6493   */\n      sub\n        /* \"#utility.yul\":6469:6470   */\n      0x00\n        /* \"#utility.yul\":6458:6467   */\n      dup4\n        /* \"#utility.yul\":6454:6471   */\n      add\n        /* \"#utility.yul\":6447:6494   */\n      mstore\n        /* \"#utility.yul\":6511:6642   */\n      tag_178\n        /* \"#utility.yul\":6637:6641   */\n      dup2\n        /* \"#utility.yul\":6511:6642   */\n      tag_102\n      jump\t// in\n    tag_178:\n        /* \"#utility.yul\":6503:6642   */\n      swap1\n      pop\n        /* \"#utility.yul\":6230:6649   */\n      swap2\n      swap1\n      pop\n      jump\t// out\n        /* \"#utility.yul\":6655:6835   */\n    tag_103:\n        /* \"#utility.yul\":6703:6780   */\n      0x4e487b7100000000000000000000000000000000000000000000000000000000\n        /* \"#utility.yul\":6700:6701   */\n      0x00\n        /* \"#utility.yul\":6693:6781   */\n      mstore\n        /* \"#utility.yul\":6800:6804   */\n      0x11\n        /* \"#utility.yul\":6797:6798   */\n      0x04\n        /* \"#utility.yul\":6790:6805   */\n      mstore\n        /* \"#utility.yul\":6824:6828   */\n      0x24\n        /* \"#utility.yul\":6821:6822   */\n      0x00\n        /* \"#utility.yul\":6814:6829   */\n      revert\n        /* \"#utility.yul\":6841:7074   */\n    tag_75:\n        /* \"#utility.yul\":6880:6883   */\n      0x00\n        /* \"#utility.yul\":6903:6927   */\n      tag_181\n        /* \"#utility.yul\":6921:6926   */\n      dup3\n        /* \"#utility.yul\":6903:6927   */\n      tag_83\n      jump\t// in\n    tag_181:\n        /* \"#utility.yul\":6894:6927   */\n      swap2\n      pop\n        /* \"#utility.yul\":6949:7015   */\n      0xffffffffffffffffffffffffffffffffffffffffffffffffffffffffffffffff\n        /* \"#utility.yul\":6942:6947   */\n      dup3\n        /* \"#utility.yul\":6939:7016   */\n      sub\n        /* \"#utility.yul\":6936:7039   */\n      tag_182\n      jumpi\n        /* \"#utility.yul\":7019:7037   */\n      tag_183\n      tag_103\n      jump\t// in\n    tag_183:\n        /* \"#utility.yul\":6936:7039   */\n    tag_182:\n        /* \"#utility.yul\":7066:7067   */\n      0x01\n        /* \"#utility.yul\":7059:7064   */\n      dup3\n        /* \"#utility.yul\":7055:7068   */\n      add\n        /* \"#utility.yul\":7048:7068   */\n      swap1\n      pop\n        /* \"#utility.yul\":6841:7074   */\n      swap2\n      swap1\n      pop\n      jump\t// out\n\n    auxdata: 0xa2646970667358221220eb27986c9369494406ea1103075cb418eda077702c73cd4713f7b07b16e434d464736f6c63430008160033\n}\n",
				"bytecode": {
					"linkReferences": {},
					"object": "608060405234801561000f575f80fd5b506107ed8061001d5f395ff3fe608060405234801561000f575f80fd5b50600436106100a7575f3560e01c80638205bf6a1161006f5780638205bf6a146101415780639a6fc8f51461015f578063b5ab58dc14610193578063b633620c146101c3578063f7a30806146101f3578063feaf968c1461020f576100a7565b8063313ce567146100ab57806350d25bcd146100c957806354fd4d50146100e7578063668a0f02146101055780637284e41614610123575b5f80fd5b6100b3610231565b6040516100c0919061043e565b60405180910390f35b6100d1610239565b6040516100de919061046f565b60405180910390f35b6100ef610241565b6040516100fc91906104a0565b60405180910390f35b61010d610249565b60405161011a91906104a0565b60405180910390f35b61012b610252565b6040516101389190610543565b60405180910390f35b61014961028f565b60405161015691906104a0565b60405180910390f35b610179600480360381019061017491906105a6565b610298565b60405161018a9594939291906105e0565b60405180910390f35b6101ad60048036038101906101a8919061065b565b61030e565b6040516101ba919061046f565b60405180910390f35b6101dd60048036038101906101d8919061065b565b61032a565b6040516101ea91906104a0565b60405180910390f35b61020d600480360381019061020891906106b0565b610347565b005b6102176103ff565b6040516102289594939291906105e0565b60405180910390f35b5f6006905090565b5f8054905090565b5f6001905090565b5f600254905090565b60606040518060400160405280601181526020017f53616d706c652050726963652046656564000000000000000000000000000000815250905090565b5f600154905090565b5f805f805f6002548669ffffffffffffffffffff16146102ed576040517f08c379a00000000000000000000000000000000000000000000000000000000081526004016102e490610725565b60405180910390fd5b6002545f546001546001546002549450945094509450945091939590929450565b5f6002548203610321575f549050610325565b5f90505b919050565b5f600254820361033e576001549050610342565b5f90505b919050565b805f819055504260018190555060025f81548092919061036690610770565b91905055506002545f547f0559884fd3a460db3073b7fc896cc77986f16e378210ded43186175bf646fc5f6001546040516103a191906104a0565b60405180910390a33373ffffffffffffffffffffffffffffffffffffffff166002547f0109fc6f55cf40689f02fbaad7af7fe7bbac8a3d2186600afc7d3e10cac602716001546040516103f491906104a0565b60405180910390a350565b5f805f805f6002545f54600154600154600254945094509450945094509091929394565b5f60ff82169050919050565b61043881610423565b82525050565b5f6020820190506104515f83018461042f565b92915050565b5f819050919050565b61046981610457565b82525050565b5f6020820190506104825f830184610460565b92915050565b5f819050919050565b61049a81610488565b82525050565b5f6020820190506104b35f830184610491565b92915050565b5f81519050919050565b5f82825260208201905092915050565b5f5b838110156104f05780820151818401526020810190506104d5565b5f8484015250505050565b5f601f19601f8301169050919050565b5f610515826104b9565b61051f81856104c3565b935061052f8185602086016104d3565b610538816104fb565b840191505092915050565b5f6020820190508181035f83015261055b818461050b565b905092915050565b5f80fd5b5f69ffffffffffffffffffff82169050919050565b61058581610567565b811461058f575f80fd5b50565b5f813590506105a08161057c565b92915050565b5f602082840312156105bb576105ba610563565b5b5f6105c884828501610592565b91505092915050565b6105da81610567565b82525050565b5f60a0820190506105f35f8301886105d1565b6106006020830187610460565b61060d6040830186610491565b61061a6060830185610491565b61062760808301846105d1565b9695505050505050565b61063a81610488565b8114610644575f80fd5b50565b5f8135905061065581610631565b92915050565b5f602082840312156106705761066f610563565b5b5f61067d84828501610647565b91505092915050565b61068f81610457565b8114610699575f80fd5b50565b5f813590506106aa81610686565b92915050565b5f602082840312156106c5576106c4610563565b5b5f6106d28482850161069c565b91505092915050565b7f4f6e6c79206c617465737420726f756e64206461746120617661696c61626c655f82015250565b5f61070f6020836104c3565b915061071a826106db565b602082019050919050565b5f6020820190508181035f83015261073c81610703565b9050919050565b7f4e487b71000000000000000000000000000000000000000000000000000000005f52601160045260245ffd5b5f61077a82610488565b91507fffffffffffffffffffffffffffffffffffffffffffffffffffffffffffffffff82036107ac576107ab610743565b5b60018201905091905056fea2646970667358221220eb27986c9369494406ea1103075cb418eda077702c73cd4713f7b07b16e434d464736f6c63430008160033",
					"opcodes": "PUSH1 0x80 PUSH1 0x40 MSTORE CALLVALUE DUP1 ISZERO PUSH2 0xF JUMPI PUSH0 DUP1 REVERT JUMPDEST POP PUSH2 0x7ED DUP1 PUSH2 0x1D PUSH0 CODECOPY PUSH0 RETURN INVALID PUSH1 0x80 PUSH1 0x40 MSTORE CALLVALUE DUP1 ISZERO PUSH2 0xF JUMPI PUSH0 DUP1 REVERT JUMPDEST POP PUSH1 0x4 CALLDATASIZE LT PUSH2 0xA7 JUMPI PUSH0 CALLDATALOAD PUSH1 0xE0 SHR DUP1 PUSH4 0x8205BF6A GT PUSH2 0x6F JUMPI DUP1 PUSH4 0x8205BF6A EQ PUSH2 0x141 JUMPI DUP1 PUSH4 0x9A6FC8F5 EQ PUSH2 0x15F JUMPI DUP1 PUSH4 0xB5AB58DC EQ PUSH2 0x193 JUMPI DUP1 PUSH4 0xB633620C EQ PUSH2 0x1C3 JUMPI DUP1 PUSH4 0xF7A30806 EQ PUSH2 0x1F3 JUMPI DUP1 PUSH4 0xFEAF968C EQ PUSH2 0x20F JUMPI PUSH2 0xA7 JUMP JUMPDEST DUP1 PUSH4 0x313CE567 EQ PUSH2 0xAB JUMPI DUP1 PUSH4 0x50D25BCD EQ PUSH2 0xC9 JUMPI DUP1 PUSH4 0x54FD4D50 EQ PUSH2 0xE7 JUMPI DUP1 PUSH4 0x668A0F02 EQ PUSH2 0x105 JUMPI DUP1 PUSH4 0x7284E416 EQ PUSH2 0x123 JUMPI JUMPDEST PUSH0 DUP1 REVERT JUMPDEST PUSH2 0xB3 PUSH2 0x231 JUMP JUMPDEST PUSH1 0x40 MLOAD PUSH2 0xC0 SWAP2 SWAP1 PUSH2 0x43E JUMP JUMPDEST PUSH1 0x40 MLOAD DUP1 SWAP2 SUB SWAP1 RETURN JUMPDEST PUSH2 0xD1 PUSH2 0x239 JUMP JUMPDEST PUSH1 0x40 MLOAD PUSH2 0xDE SWAP2 SWAP1 PUSH2 0x46F JUMP JUMPDEST PUSH1 0x40 MLOAD DUP1 SWAP2 SUB SWAP1 RETURN JUMPDEST PUSH2 0xEF PUSH2 0x241 JUMP JUMPDEST PUSH1 0x40 MLOAD PUSH2 0xFC SWAP2 SWAP1 PUSH2 0x4A0 JUMP JUMPDEST PUSH1 0x40 MLOAD DUP1 SWAP2 SUB SWAP1 RETURN JUMPDEST PUSH2 0x10D PUSH2 0x249 JUMP JUMPDEST PUSH1 0x40 MLOAD PUSH2 0x11A SWAP2 SWAP1 PUSH2 0x4A0 JUMP JUMPDEST PUSH1 0x40 MLOAD DUP1 SWAP2 SUB SWAP1 RETURN JUMPDEST PUSH2 0x12B PUSH2 0x252 JUMP JUMPDEST PUSH1 0x40 MLOAD PUSH2 0x138 SWAP2 SWAP1 PUSH2 0x543 JUMP JUMPDEST PUSH1 0x40 MLOAD DUP1 SWAP2 SUB SWAP1 RETURN JUMPDEST PUSH2 0x149 PUSH2 0x28F JUMP JUMPDEST PUSH1 0x40 MLOAD PUSH2 0x156 SWAP2 SWAP1 PUSH2 0x4A0 JUMP JUMPDEST PUSH1 0x40 MLOAD DUP1 SWAP2 SUB SWAP1 RETURN JUMPDEST PUSH2 0x179 PUSH1 0x4 DUP1 CALLDATASIZE SUB DUP2 ADD SWAP1 PUSH2 0x174 SWAP2 SWAP1 PUSH2 0x5A6 JUMP JUMPDEST PUSH2 0x298 JUMP JUMPDEST PUSH1 0x40 MLOAD PUSH2 0x18A SWAP6 SWAP5 SWAP4 SWAP3 SWAP2 SWAP1 PUSH2 0x5E0 JUMP JUMPDEST PUSH1 0x40 MLOAD DUP1 SWAP2 SUB SWAP1 RETURN JUMPDEST PUSH2 0x1AD PUSH1 0x4 DUP1 CALLDATASIZE SUB DUP2 ADD SWAP1 PUSH2 0x1A8 SWAP2 SWAP1 PUSH2 0x65B JUMP JUMPDEST PUSH2 0x30E JUMP JUMPDEST PUSH1 0x40 MLOAD PUSH2 0x1BA SWAP2 SWAP1 PUSH2 0x46F JUMP JUMPDEST PUSH1 0x40 MLOAD DUP1 SWAP2 SUB SWAP1 RETURN JUMPDEST PUSH2 0x1DD PUSH1 0x4 DUP1 CALLDATASIZE SUB DUP2 ADD SWAP1 PUSH2 0x1D8 SWAP2 SWAP1 PUSH2 0x65B JUMP JUMPDEST PUSH2 0x32A JUMP JUMPDEST PUSH1 0x40 MLOAD PUSH2 0x1EA SWAP2 SWAP1 PUSH2 0x4A0 JUMP JUMPDEST PUSH1 0x40 MLOAD DUP1 SWAP2 SUB SWAP1 RETURN JUMPDEST PUSH2 0x20D PUSH1 0x4 DUP1 CALLDATASIZE SUB DUP2 ADD SWAP1 PUSH2 0x208 SWAP2 SWAP1 PUSH2 0x6B0 JUMP JUMPDEST PUSH2 0x347 JUMP JUMPDEST STOP JUMPDEST PUSH2 0x217 PUSH2 0x3FF JUMP JUMPDEST PUSH1 0x40 MLOAD PUSH2 0x228 SWAP6 SWAP5 SWAP4 SWAP3 SWAP2 SWAP1 PUSH2 0x5E0 JUMP JUMPDEST PUSH1 0x40 MLOAD DUP1 SWAP2 SUB SWAP1 RETURN JUMPDEST PUSH0 PUSH1 0x6 SWAP1 POP SWAP1 JUMP JUMPDEST PUSH0 DUP1 SLOAD SWAP1 POP SWAP1 JUMP JUMPDEST PUSH0 PUSH1 0x1 SWAP1 POP SWAP1 JUMP JUMPDEST PUSH0 PUSH1 0x2 SLOAD SWAP1 POP SWAP1 JUMP JUMPDEST PUSH1 0x60 PUSH1 0x40 MLOAD DUP1 PUSH1 0x40 ADD PUSH1 0x40 MSTORE DUP1 PUSH1 0x11 DUP2 MSTORE PUSH1 0x20 ADD PUSH32 0x53616D706C652050726963652046656564000000000000000000000000000000 DUP2 MSTORE POP SWAP1 POP SWAP1 JUMP JUMPDEST PUSH0 PUSH1 0x1 SLOAD SWAP1 POP SWAP1 JUMP JUMPDEST PUSH0 DUP1 PUSH0 DUP1 PUSH0 PUSH1 0x2 SLOAD DUP7 PUSH10 0xFFFFFFFFFFFFFFFFFFFF AND EQ PUSH2 0x2ED JUMPI PUSH1 0x40 MLOAD PUSH32 0x8C379A000000000000000000000000000000000000000000000000000000000 DUP2 MSTORE PUSH1 0x4 ADD PUSH2 0x2E4 SWAP1 PUSH2 0x725 JUMP JUMPDEST PUSH1 0x40 MLOAD DUP1 SWAP2 SUB SWAP1 REVERT JUMPDEST PUSH1 0x2 SLOAD PUSH0 SLOAD PUSH1 0x1 SLOAD PUSH1 0x1 SLOAD PUSH1 0x2 SLOAD SWAP5 POP SWAP5 POP SWAP5 POP SWAP5 POP SWAP5 POP SWAP2 SWAP4 SWAP6 SWAP1 SWAP3 SWAP5 POP JUMP JUMPDEST PUSH0 PUSH1 0x2 SLOAD DUP3 SUB PUSH2 0x321 JUMPI PUSH0 SLOAD SWAP1 POP PUSH2 0x325 JUMP JUMPDEST PUSH0 SWAP1 POP JUMPDEST SWAP2 SWAP1 POP JUMP JUMPDEST PUSH0 PUSH1 0x2 SLOAD DUP3 SUB PUSH2 0x33E JUMPI PUSH1 0x1 SLOAD SWAP1 POP PUSH2 0x342 JUMP JUMPDEST PUSH0 SWAP1 POP JUMPDEST SWAP2 SWAP1 POP JUMP JUMPDEST DUP1 PUSH0 DUP2 SWAP1 SSTORE POP TIMESTAMP PUSH1 0x1 DUP2 SWAP1 SSTORE POP PUSH1 0x2 PUSH0 DUP2 SLOAD DUP1 SWAP3 SWAP2 SWAP1 PUSH2 0x366 SWAP1 PUSH2 0x770 JUMP JUMPDEST SWAP2 SWAP1 POP SSTORE POP PUSH1 0x2 SLOAD PUSH0 SLOAD PUSH32 0x559884FD3A460DB3073B7FC896CC77986F16E378210DED43186175BF646FC5F PUSH1 0x1 SLOAD PUSH1 0x40 MLOAD PUSH2 0x3A1 SWAP2 SWAP1 PUSH2 0x4A0 JUMP JUMPDEST PUSH1 0x40 MLOAD DUP1 SWAP2 SUB SWAP1 LOG3 CALLER PUSH20 0xFFFFFFFFFFFFFFFFFFFFFFFFFFFFFFFFFFFFFFFF AND PUSH1 0x2 SLOAD PUSH32 0x109FC6F55CF40689F02FBAAD7AF7FE7BBAC8A3D2186600AFC7D3E10CAC60271 PUSH1 0x1 SLOAD PUSH1 0x40 MLOAD PUSH2 0x3F4 SWAP2 SWAP1 PUSH2 0x4A0 JUMP JUMPDEST PUSH1 0x40 MLOAD DUP1 SWAP2 SUB SWAP1 LOG3 POP JUMP JUMPDEST PUSH0 DUP1 PUSH0 DUP1 PUSH0 PUSH1 0x2 SLOAD PUSH0 SLOAD PUSH1 0x1 SLOAD PUSH1 0x1 SLOAD PUSH1 0x2 SLOAD SWAP5 POP SWAP5 POP SWAP5 POP SWAP5 POP SWAP5 POP SWAP1 SWAP2 SWAP3 SWAP4 SWAP5 JUMP JUMPDEST PUSH0 PUSH1 0xFF DUP3 AND SWAP1 POP SWAP2 SWAP1 POP JUMP JUMPDEST PUSH2 0x438 DUP2 PUSH2 0x423 JUMP JUMPDEST DUP3 MSTORE POP POP JUMP JUMPDEST PUSH0 PUSH1 0x20 DUP3 ADD SWAP1 POP PUSH2 0x451 PUSH0 DUP4 ADD DUP5 PUSH2 0x42F JUMP JUMPDEST SWAP3 SWAP2 POP POP JUMP JUMPDEST PUSH0 DUP2 SWAP1 POP SWAP2 SWAP1 POP JUMP JUMPDEST PUSH2 0x469 DUP2 PUSH2 0x457 JUMP JUMPDEST DUP3 MSTORE POP POP JUMP JUMPDEST PUSH0 PUSH1 0x20 DUP3 ADD SWAP1 POP PUSH2 0x482 PUSH0 DUP4 ADD DUP5 PUSH2 0x460 JUMP JUMPDEST SWAP3 SWAP2 POP POP JUMP JUMPDEST PUSH0 DUP2 SWAP1 POP SWAP2 SWAP1 POP JUMP JUMPDEST PUSH2 0x49A DUP2 PUSH2 0x488 JUMP JUMPDEST DUP3 MSTORE POP POP JUMP JUMPDEST PUSH0 PUSH1 0x20 DUP3 ADD SWAP1 POP PUSH2 0x4B3 PUSH0 DUP4 ADD DUP5 PUSH2 0x491 JUMP JUMPDEST SWAP3 SWAP2 POP POP JUMP JUMPDEST PUSH0 DUP2 MLOAD SWAP1 POP SWAP2 SWAP1 POP JUMP JUMPDEST PUSH0 DUP3 DUP3 MSTORE PUSH1 0x20 DUP3 ADD SWAP1 POP SWAP3 SWAP2 POP POP JUMP JUMPDEST PUSH0 JUMPDEST DUP4 DUP2 LT ISZERO PUSH2 0x4F0 JUMPI DUP1 DUP3 ADD MLOAD DUP2 DUP5 ADD MSTORE PUSH1 0x20 DUP2 ADD SWAP1 POP PUSH2 0x4D5 JUMP JUMPDEST PUSH0 DUP5 DUP5 ADD MSTORE POP POP POP POP JUMP JUMPDEST PUSH0 PUSH1 0x1F NOT PUSH1 0x1F DUP4 ADD AND SWAP1 POP SWAP2 SWAP1 POP JUMP JUMPDEST PUSH0 PUSH2 0x515 DUP3 PUSH2 0x4B9 JUMP JUMPDEST PUSH2 0x51F DUP2 DUP6 PUSH2 0x4C3 JUMP JUMPDEST SWAP4 POP PUSH2 0x52F DUP2 DUP6 PUSH1 0x20 DUP7 ADD PUSH2 0x4D3 JUMP JUMPDEST PUSH2 0x538 DUP2 PUSH2 0x4FB JUMP JUMPDEST DUP5 ADD SWAP2 POP POP SWAP3 SWAP2 POP POP JUMP JUMPDEST PUSH0 PUSH1 0x20 DUP3 ADD SWAP1 POP DUP2 DUP2 SUB PUSH0 DUP4 ADD MSTORE PUSH2 0x55B DUP2 DUP5 PUSH2 0x50B JUMP JUMPDEST SWAP1 POP SWAP3 SWAP2 POP POP JUMP JUMPDEST PUSH0 DUP1 REVERT JUMPDEST PUSH0 PUSH10 0xFFFFFFFFFFFFFFFFFFFF DUP3 AND SWAP1 POP SWAP2 SWAP1 POP JUMP JUMPDEST PUSH2 0x585 DUP2 PUSH2 0x567 JUMP JUMPDEST DUP2 EQ PUSH2 0x58F JUMPI PUSH0 DUP1 REVERT JUMPDEST POP JUMP JUMPDEST PUSH0 DUP2 CALLDATALOAD SWAP1 POP PUSH2 0x5A0 DUP2 PUSH2 0x57C JUMP JUMPDEST SWAP3 SWAP2 POP POP JUMP JUMPDEST PUSH0 PUSH1 0x20 DUP3 DUP5 SUB SLT ISZERO PUSH2 0x5BB JUMPI PUSH2 0x5BA PUSH2 0x563 JUMP JUMPDEST JUMPDEST PUSH0 PUSH2 0x5C8 DUP5 DUP3 DUP6 ADD PUSH2 0x592 JUMP JUMPDEST SWAP2 POP POP SWAP3 SWAP2 POP POP JUMP JUMPDEST PUSH2 0x5DA DUP2 PUSH2 0x567 JUMP JUMPDEST DUP3 MSTORE POP POP JUMP JUMPDEST PUSH0 PUSH1 0xA0 DUP3 ADD SWAP1 POP PUSH2 0x5F3 PUSH0 DUP4 ADD DUP9 PUSH2 0x5D1 JUMP JUMPDEST PUSH2 0x600 PUSH1 0x20 DUP4 ADD DUP8 PUSH2 0x460 JUMP JUMPDEST PUSH2 0x60D PUSH1 0x40 DUP4 ADD DUP7 PUSH2 0x491 JUMP JUMPDEST PUSH2 0x61A PUSH1 0x60 DUP4 ADD DUP6 PUSH2 0x491 JUMP JUMPDEST PUSH2 0x627 PUSH1 0x80 DUP4 ADD DUP5 PUSH2 0x5D1 JUMP JUMPDEST SWAP7 SWAP6 POP POP POP POP POP POP JUMP JUMPDEST PUSH2 0x63A DUP2 PUSH2 0x488 JUMP JUMPDEST DUP2 EQ PUSH2 0x644 JUMPI PUSH0 DUP1 REVERT JUMPDEST POP JUMP JUMPDEST PUSH0 DUP2 CALLDATALOAD SWAP1 POP PUSH2 0x655 DUP2 PUSH2 0x631 JUMP JUMPDEST SWAP3 SWAP2 POP POP JUMP JUMPDEST PUSH0 PUSH1 0x20 DUP3 DUP5 SUB SLT ISZERO PUSH2 0x670 JUMPI PUSH2 0x66F PUSH2 0x563 JUMP JUMPDEST JUMPDEST PUSH0 PUSH2 0x67D DUP5 DUP3 DUP6 ADD PUSH2 0x647 JUMP JUMPDEST SWAP2 POP POP SWAP3 SWAP2 POP POP JUMP JUMPDEST PUSH2 0x68F DUP2 PUSH2 0x457 JUMP JUMPDEST DUP2 EQ PUSH2 0x699 JUMPI PUSH0 DUP1 REVERT JUMPDEST POP JUMP JUMPDEST PUSH0 DUP2 CALLDATALOAD SWAP1 POP PUSH2 0x6AA DUP2 PUSH2 0x686 JUMP JUMPDEST SWAP3 SWAP2 POP POP JUMP JUMPDEST PUSH0 PUSH1 0x20 DUP3 DUP5 SUB SLT ISZERO PUSH2 0x6C5 JUMPI PUSH2 0x6C4 PUSH2 0x563 JUMP JUMPDEST JUMPDEST PUSH0 PUSH2 0x6D2 DUP5 DUP3 DUP6 ADD PUSH2 0x69C JUMP JUMPDEST SWAP2 POP POP SWAP3 SWAP2 POP POP JUMP JUMPDEST PUSH32 0x4F6E6C79206C617465737420726F756E64206461746120617661696C61626C65 PUSH0 DUP3 ADD MSTORE POP JUMP JUMPDEST PUSH0 PUSH2 0x70F PUSH1 0x20 DUP4 PUSH2 0x4C3 JUMP JUMPDEST SWAP2 POP PUSH2 0x71A DUP3 PUSH2 0x6DB JUMP JUMPDEST PUSH1 0x20 DUP3 ADD SWAP1 POP SWAP2 SWAP1 POP JUMP JUMPDEST PUSH0 PUSH1 0x20 DUP3 ADD SWAP1 POP DUP2 DUP2 SUB PUSH0 DUP4 ADD MSTORE PUSH2 0x73C DUP2 PUSH2 0x703 JUMP JUMPDEST SWAP1 POP SWAP2 SWAP1 POP JUMP JUMPDEST PUSH32 0x4E487B7100000000000000000000000000000000000000000000000000000000 PUSH0 MSTORE PUSH1 0x11 PUSH1 0x4 MSTORE PUSH1 0x24 PUSH0 REVERT JUMPDEST PUSH0 PUSH2 0x77A DUP3 PUSH2 0x488 JUMP JUMPDEST SWAP2 POP PUSH32 0xFFFFFFFFFFFFFFFFFFFFFFFFFFFFFFFFFFFFFFFFFFFFFFFFFFFFFFFFFFFFFFFF DUP3 SUB PUSH2 0x7AC JUMPI PUSH2 0x7AB PUSH2 0x743 JUMP JUMPDEST JUMPDEST PUSH1 0x1 DUP3 ADD SWAP1 POP SWAP2 SWAP1 POP JUMP INVALID LOG2 PUSH5 0x6970667358 0x22 SLT KECCAK256 0xEB 0x27 SWAP9 PUSH13 0x9369494406EA1103075CB418ED LOG0 PUSH24 0x702C73CD4713F7B07B16E434D464736F6C63430008160033 "
				},
				"gasEstimates": {
					"creation": {
						"codeDepositCost": "405800",
						"executionCost": "441",
						"totalCost": "406241"
					},
					"external": {
						"decimals()": "339",
						"description()": "infinite",
						"getAnswer(uint256)": "4870",
						"getRoundData(uint80)": "infinite",
						"getTimestamp(uint256)": "infinite",
						"latestAnswer()": "2455",
						"latestRound()": "2499",
						"latestRoundData()": "infinite",
						"latestTimestamp()": "2432",
						"setPrice(int256)": "infinite",
						"version()": "377"
					}
				},
				"methodIdentifiers": {
					"decimals()": "313ce567",
					"description()": "7284e416",
					"getAnswer(uint256)": "b5ab58dc",
					"getRoundData(uint80)": "9a6fc8f5",
					"getTimestamp(uint256)": "b633620c",
					"latestAnswer()": "50d25bcd",
					"latestRound()": "668a0f02",
					"latestRoundData()": "feaf968c",
					"latestTimestamp()": "8205bf6a",
					"setPrice(int256)": "f7a30806",
					"version()": "54fd4d50"
				}
			},
			"storageLayout": {
				"storage": [
					{
						"astId": 6,
						"contract": "contracts/DummyChainlinkCompatibleOracle.sol:DummyChainlinkCompatibleOracle",
						"label": "latestPrice",
						"offset": 0,
						"slot": "0",
						"type": "t_int256"
					},
					{
						"astId": 8,
						"contract": "contracts/DummyChainlinkCompatibleOracle.sol:DummyChainlinkCompatibleOracle",
						"label": "latestPriceTimestamp",
						"offset": 0,
						"slot": "1",
						"type": "t_uint256"
					},
					{
						"astId": 10,
						"contract": "contracts/DummyChainlinkCompatibleOracle.sol:DummyChainlinkCompatibleOracle",
						"label": "latestRoundId",
						"offset": 0,
						"slot": "2",
						"type": "t_uint256"
					}
				],
				"types": {
					"t_int256": {
						"encoding": "inplace",
						"label": "int256",
						"numberOfBytes": "32"
					},
					"t_uint256": {
						"encoding": "inplace",
						"label": "uint256",
						"numberOfBytes": "32"
					}
				}
			},
			"userdoc": {
				"kind": "user",
				"methods": {},
				"version": 1
			}
		}
	}
}